{
  "address": "0x02a2788a08fb7f34C379d536fEa25BD252B6eC59",
  "abi": [
    {
      "anonymous": false,
      "inputs": [
        {
          "indexed": true,
          "internalType": "address",
          "name": "owner",
          "type": "address"
        },
        {
          "indexed": true,
          "internalType": "address",
          "name": "spender",
          "type": "address"
        },
        {
          "indexed": false,
          "internalType": "uint256",
          "name": "value",
          "type": "uint256"
        }
      ],
      "name": "Approval",
      "type": "event"
    },
    {
      "anonymous": false,
      "inputs": [
        {
          "indexed": true,
          "internalType": "address",
          "name": "from",
          "type": "address"
        },
        {
          "indexed": true,
          "internalType": "address",
          "name": "to",
          "type": "address"
        },
        {
          "indexed": false,
          "internalType": "uint256",
          "name": "value",
          "type": "uint256"
        }
      ],
      "name": "Transfer",
      "type": "event"
    },
    {
      "inputs": [],
      "name": "PERMIT_TYPEHASH",
      "outputs": [
        {
          "internalType": "bytes32",
          "name": "",
          "type": "bytes32"
        }
      ],
      "stateMutability": "view",
      "type": "function"
    },
    {
      "inputs": [
        {
          "internalType": "address",
          "name": "",
          "type": "address"
        },
        {
          "internalType": "address",
          "name": "",
          "type": "address"
        }
      ],
      "name": "allowance",
      "outputs": [
        {
          "internalType": "uint256",
          "name": "",
          "type": "uint256"
        }
      ],
      "stateMutability": "view",
      "type": "function"
    },
    {
      "inputs": [
        {
          "internalType": "address",
          "name": "spender",
          "type": "address"
        },
        {
          "internalType": "uint256",
          "name": "value",
          "type": "uint256"
        }
      ],
      "name": "approve",
      "outputs": [
        {
          "internalType": "bool",
          "name": "",
          "type": "bool"
        }
      ],
      "stateMutability": "nonpayable",
      "type": "function"
    },
    {
      "inputs": [
        {
          "internalType": "address",
          "name": "spender",
          "type": "address"
        },
        {
          "internalType": "uint256",
          "name": "value",
          "type": "uint256"
        },
        {
          "internalType": "bytes",
          "name": "data",
          "type": "bytes"
        }
      ],
      "name": "approveAndCall",
      "outputs": [
        {
          "internalType": "bool",
          "name": "",
          "type": "bool"
        }
      ],
      "stateMutability": "nonpayable",
      "type": "function"
    },
    {
      "inputs": [
        {
          "internalType": "address",
          "name": "",
          "type": "address"
        }
      ],
      "name": "balanceOf",
      "outputs": [
        {
          "internalType": "uint256",
          "name": "",
          "type": "uint256"
        }
      ],
      "stateMutability": "view",
      "type": "function"
    },
    {
      "inputs": [],
      "name": "decimals",
      "outputs": [
        {
          "internalType": "uint8",
          "name": "",
          "type": "uint8"
        }
      ],
      "stateMutability": "view",
      "type": "function"
    },
    {
      "inputs": [],
      "name": "deposit",
      "outputs": [],
      "stateMutability": "payable",
      "type": "function"
    },
    {
      "inputs": [
        {
          "internalType": "address",
          "name": "to",
          "type": "address"
        }
      ],
      "name": "depositTo",
      "outputs": [],
      "stateMutability": "payable",
      "type": "function"
    },
    {
      "inputs": [
        {
          "internalType": "address",
          "name": "to",
          "type": "address"
        },
        {
          "internalType": "bytes",
          "name": "data",
          "type": "bytes"
        }
      ],
      "name": "depositToAndCall",
      "outputs": [
        {
          "internalType": "bool",
          "name": "success",
          "type": "bool"
        }
      ],
      "stateMutability": "payable",
      "type": "function"
    },
    {
      "inputs": [
        {
          "internalType": "address",
          "name": "token",
          "type": "address"
        },
        {
          "internalType": "uint256",
          "name": "",
          "type": "uint256"
        }
      ],
      "name": "flashFee",
      "outputs": [
        {
          "internalType": "uint256",
          "name": "",
          "type": "uint256"
        }
      ],
      "stateMutability": "view",
      "type": "function"
    },
    {
      "inputs": [
        {
          "internalType": "address",
          "name": "receiver",
          "type": "address"
        },
        {
          "internalType": "address",
          "name": "token",
          "type": "address"
        },
        {
          "internalType": "uint256",
          "name": "value",
          "type": "uint256"
        },
        {
          "internalType": "bytes",
          "name": "data",
          "type": "bytes"
        }
      ],
      "name": "flashLoan",
      "outputs": [],
      "stateMutability": "nonpayable",
      "type": "function"
    },
    {
      "inputs": [],
      "name": "flashMinted",
      "outputs": [
        {
          "internalType": "uint256",
          "name": "",
          "type": "uint256"
        }
      ],
      "stateMutability": "view",
      "type": "function"
    },
    {
      "inputs": [
        {
          "internalType": "address",
          "name": "token",
          "type": "address"
        }
      ],
      "name": "maxFlashAmount",
      "outputs": [
        {
          "internalType": "uint256",
          "name": "",
          "type": "uint256"
        }
      ],
      "stateMutability": "view",
      "type": "function"
    },
    {
      "inputs": [],
      "name": "name",
      "outputs": [
        {
          "internalType": "string",
          "name": "",
          "type": "string"
        }
      ],
      "stateMutability": "view",
      "type": "function"
    },
    {
      "inputs": [
        {
          "internalType": "address",
          "name": "",
          "type": "address"
        }
      ],
      "name": "nonces",
      "outputs": [
        {
          "internalType": "uint256",
          "name": "",
          "type": "uint256"
        }
      ],
      "stateMutability": "view",
      "type": "function"
    },
    {
      "inputs": [
        {
          "internalType": "address",
          "name": "owner",
          "type": "address"
        },
        {
          "internalType": "address",
          "name": "spender",
          "type": "address"
        },
        {
          "internalType": "uint256",
          "name": "value",
          "type": "uint256"
        },
        {
          "internalType": "uint256",
          "name": "deadline",
          "type": "uint256"
        },
        {
          "internalType": "uint8",
          "name": "v",
          "type": "uint8"
        },
        {
          "internalType": "bytes32",
          "name": "r",
          "type": "bytes32"
        },
        {
          "internalType": "bytes32",
          "name": "s",
          "type": "bytes32"
        }
      ],
      "name": "permit",
      "outputs": [],
      "stateMutability": "nonpayable",
      "type": "function"
    },
    {
      "inputs": [],
      "name": "symbol",
      "outputs": [
        {
          "internalType": "string",
          "name": "",
          "type": "string"
        }
      ],
      "stateMutability": "view",
      "type": "function"
    },
    {
      "inputs": [],
      "name": "totalSupply",
      "outputs": [
        {
          "internalType": "uint256",
          "name": "",
          "type": "uint256"
        }
      ],
      "stateMutability": "view",
      "type": "function"
    },
    {
      "inputs": [
        {
          "internalType": "address",
          "name": "to",
          "type": "address"
        },
        {
          "internalType": "uint256",
          "name": "value",
          "type": "uint256"
        }
      ],
      "name": "transfer",
      "outputs": [
        {
          "internalType": "bool",
          "name": "",
          "type": "bool"
        }
      ],
      "stateMutability": "nonpayable",
      "type": "function"
    },
    {
      "inputs": [
        {
          "internalType": "address",
          "name": "to",
          "type": "address"
        },
        {
          "internalType": "uint256",
          "name": "value",
          "type": "uint256"
        },
        {
          "internalType": "bytes",
          "name": "data",
          "type": "bytes"
        }
      ],
      "name": "transferAndCall",
      "outputs": [
        {
          "internalType": "bool",
          "name": "",
          "type": "bool"
        }
      ],
      "stateMutability": "nonpayable",
      "type": "function"
    },
    {
      "inputs": [
        {
          "internalType": "address",
          "name": "from",
          "type": "address"
        },
        {
          "internalType": "address",
          "name": "to",
          "type": "address"
        },
        {
          "internalType": "uint256",
          "name": "value",
          "type": "uint256"
        }
      ],
      "name": "transferFrom",
      "outputs": [
        {
          "internalType": "bool",
          "name": "",
          "type": "bool"
        }
      ],
      "stateMutability": "nonpayable",
      "type": "function"
    },
    {
      "inputs": [
        {
          "internalType": "uint256",
          "name": "value",
          "type": "uint256"
        }
      ],
      "name": "withdraw",
      "outputs": [],
      "stateMutability": "nonpayable",
      "type": "function"
    },
    {
      "inputs": [
        {
          "internalType": "address",
          "name": "from",
          "type": "address"
        },
        {
          "internalType": "address payable",
          "name": "to",
          "type": "address"
        },
        {
          "internalType": "uint256",
          "name": "value",
          "type": "uint256"
        }
      ],
      "name": "withdrawFrom",
      "outputs": [],
      "stateMutability": "nonpayable",
      "type": "function"
    },
    {
      "inputs": [
        {
          "internalType": "address payable",
          "name": "to",
          "type": "address"
        },
        {
          "internalType": "uint256",
          "name": "value",
          "type": "uint256"
        }
      ],
      "name": "withdrawTo",
      "outputs": [],
      "stateMutability": "nonpayable",
      "type": "function"
    },
    {
      "stateMutability": "payable",
      "type": "receive"
    }
  ],
  "transactionHash": "0x32dc004519a19b51de02bacaa0df1c243cda39c1a82d15c4ced3b2f1ada68422",
  "args": [],
  "solcInputHash": "0x1ad4a3520af26f40468a205a4fe0ca02e7e28ce688f3de902cb61ee6fbbeae63",
  "bytecode": "0x60a06040527f6e71edae12b1b97f4d1f60370fef10105fa2faae0126114a169c64845d6126c960805234801561003457600080fd5b5060805161190161005460003980610ac5528061117a52506119016000f3fe60806040526004361061018f5760003560e01c806370a08231116100d6578063b760faf91161007f578063d505accf11610059578063d505accf146107e0578063d9d98ce41461084b578063dd62ed3e14610891576101a0565b8063b760faf914610706578063cae9ca5114610739578063d0e30db0146107d8576101a0565b80639555a942116100b05780639555a9421461065b57806395d89b41146106ab578063a9059cbb146106c0576101a0565b806370a08231146105c65780637ecebe00146106065780638b28d32f14610646576101a0565b80632e1a7d4d116101385780634000aea0116101125780634000aea0146103f05780635cffe9de1461048f5780635ddb7d7e14610539576101a0565b80632e1a7d4d1461038657806330adf81f146103b0578063313ce567146103c5576101a0565b806318160ddd1161016957806318160ddd146102db578063205c2878146102f057806323b872dd14610336576101a0565b806306fdde03146101a5578063095ea7b31461022f5780630ba9c65514610289576101a0565b366101a05761019e33346108d9565b005b600080fd5b3480156101b157600080fd5b506101ba6109be565b6040805160208082528351818301528351919283929083019185019080838360005b838110156101f45781810151838201526020016101dc565b50505050905090810190601f1680156102215780820380516001836020036101000a031916815260200191505b509250505060405180910390f35b34801561023b57600080fd5b506102756004803603604081101561025257600080fd5b5073ffffffffffffffffffffffffffffffffffffffff81351690602001356109f7565b604080519115158252519081900360200190f35b34801561029557600080fd5b506102c9600480360360208110156102ac57600080fd5b503573ffffffffffffffffffffffffffffffffffffffff16610a0d565b60408051918252519081900360200190f35b3480156102e757600080fd5b506102c9610a4f565b3480156102fc57600080fd5b5061019e6004803603604081101561031357600080fd5b5073ffffffffffffffffffffffffffffffffffffffff8135169060200135610a57565b34801561034257600080fd5b506102756004803603606081101561035957600080fd5b5073ffffffffffffffffffffffffffffffffffffffff813581169160208101359091169060400135610a6f565b34801561039257600080fd5b5061019e600480360360208110156103a957600080fd5b5035610aac565b3480156103bc57600080fd5b506102c9610ac3565b3480156103d157600080fd5b506103da610ae7565b6040805160ff9092168252519081900360200190f35b3480156103fc57600080fd5b506102756004803603606081101561041357600080fd5b73ffffffffffffffffffffffffffffffffffffffff8235169160208101359181019060608101604082013564010000000081111561045057600080fd5b82018360208201111561046257600080fd5b8035906020019184600183028401116401000000008311171561048457600080fd5b509092509050610aec565b34801561049b57600080fd5b5061019e600480360360808110156104b257600080fd5b73ffffffffffffffffffffffffffffffffffffffff8235811692602081013590911691604082013591908101906080810160608201356401000000008111156104fa57600080fd5b82018360208201111561050c57600080fd5b8035906020019184600183028401116401000000008311171561052e57600080fd5b509092509050610bd4565b6102756004803603604081101561054f57600080fd5b73ffffffffffffffffffffffffffffffffffffffff823516919081019060408101602082013564010000000081111561058757600080fd5b82018360208201111561059957600080fd5b803590602001918460018302840111640100000000831117156105bb57600080fd5b509092509050610d73565b3480156105d257600080fd5b506102c9600480360360208110156105e957600080fd5b503573ffffffffffffffffffffffffffffffffffffffff16610e5d565b34801561061257600080fd5b506102c96004803603602081101561062957600080fd5b503573ffffffffffffffffffffffffffffffffffffffff16610e6f565b34801561065257600080fd5b506102c9610e81565b34801561066757600080fd5b5061019e6004803603606081101561067e57600080fd5b5073ffffffffffffffffffffffffffffffffffffffff813581169160208101359091169060400135610e87565b3480156106b757600080fd5b506101ba610ec8565b3480156106cc57600080fd5b50610275600480360360408110156106e357600080fd5b5073ffffffffffffffffffffffffffffffffffffffff8135169060200135610f01565b61019e6004803603602081101561071c57600080fd5b503573ffffffffffffffffffffffffffffffffffffffff16610f15565b34801561074557600080fd5b506102756004803603606081101561075c57600080fd5b73ffffffffffffffffffffffffffffffffffffffff8235169160208101359181019060608101604082013564010000000081111561079957600080fd5b8201836020820111156107ab57600080fd5b803590602001918460018302840111640100000000831117156107cd57600080fd5b509092509050610f1f565b61019e610fd0565b3480156107ec57600080fd5b5061019e600480360360e081101561080357600080fd5b5073ffffffffffffffffffffffffffffffffffffffff813581169160208101359091169060408101359060608101359060ff6080820135169060a08101359060c00135610fdc565b34801561085757600080fd5b506102c96004803603604081101561086e57600080fd5b5073ffffffffffffffffffffffffffffffffffffffff81351690602001356113ac565b34801561089d57600080fd5b506102c9600480360360408110156108b457600080fd5b5073ffffffffffffffffffffffffffffffffffffffff8135811691602001351661143b565b6dffffffffffffffffffffffffffff80166003544701111561095c57604080517f08c379a000000000000000000000000000000000000000000000000000000000815260206004820152601b60248201527f574554483a20737570706c79206c696d69742065786365656465640000000000604482015290519081900360640190fd5b73ffffffffffffffffffffffffffffffffffffffff8216600081815260208181526040808320805486019055805185815290517fddf252ad1be2c89b69c2b068fc378daa952ba7f163c4a11628f55a4df523b3ef929181900390910190a35050565b6040518060400160405280601181526020017f577261707065642045746865722076313000000000000000000000000000000081525081565b6000610a04338484611458565b50600192915050565b600073ffffffffffffffffffffffffffffffffffffffff82163014610a33576000610a49565b600354476dffffffffffffffffffffffffffff03035b92915050565b600354470190565b610a6133826114c7565b610a6b82826115ab565b5050565b600073ffffffffffffffffffffffffffffffffffffffff84163314610a9957610a99843384611678565b610aa4848484611754565b949350505050565b610ab633826114c7565b610ac033826115ab565b50565b7f000000000000000000000000000000000000000000000000000000000000000081565b601281565b6000610af9338686611754565b508473ffffffffffffffffffffffffffffffffffffffff1663a4c0ed36338686866040518563ffffffff1660e01b8152600401808573ffffffffffffffffffffffffffffffffffffffff168152602001848152602001806020018281038252848482818152602001925080828437600081840152601f19601f82011690508083019250505095505050505050602060405180830381600087803b158015610b9f57600080fd5b505af1158015610bb3573d6000803e3d6000fd5b505050506040513d6020811015610bc957600080fd5b505195945050505050565b73ffffffffffffffffffffffffffffffffffffffff84163014610c5857604080517f08c379a000000000000000000000000000000000000000000000000000000000815260206004820152601c60248201527f574554483a20666c617368206d696e74206f6e6c792057455448313000000000604482015290519081900360640190fd5b6003805484019055610c6a85846108d9565b8473ffffffffffffffffffffffffffffffffffffffff166323e30c8b333086600087876040518763ffffffff1660e01b8152600401808773ffffffffffffffffffffffffffffffffffffffff1681526020018673ffffffffffffffffffffffffffffffffffffffff168152602001858152602001848152602001806020018281038252848482818152602001925080828437600081840152601f19601f820116905080830192505050975050505050505050600060405180830381600087803b158015610d3657600080fd5b505af1158015610d4a573d6000803e3d6000fd5b50505050610d59853085611678565b610d6385846114c7565b5050600380549190910390555050565b6000610d7f84346108d9565b6040517fa4c0ed36000000000000000000000000000000000000000000000000000000008152336004820181815234602484018190526060604485019081526064850187905273ffffffffffffffffffffffffffffffffffffffff89169463a4c0ed36949389928992608401848480828437600081840152601f19601f82011690508083019250505095505050505050602060405180830381600087803b158015610e2957600080fd5b505af1158015610e3d573d6000803e3d6000fd5b505050506040513d6020811015610e5357600080fd5b5051949350505050565b60006020819052908152604090205481565b60016020526000908152604090205481565b60035481565b73ffffffffffffffffffffffffffffffffffffffff83163314610eaf57610eaf833383611678565b610eb983826114c7565b610ec382826115ab565b505050565b6040518060400160405280600681526020017f574554483130000000000000000000000000000000000000000000000000000081525081565b6000610f0e338484611754565b9392505050565b610ac081346108d9565b6000610f2c338686611458565b8473ffffffffffffffffffffffffffffffffffffffff1662ba451f338686866040518563ffffffff1660e01b8152600401808573ffffffffffffffffffffffffffffffffffffffff168152602001848152602001806020018281038252848482818152602001925080828437600081840152601f19601f82011690508083019250505095505050505050602060405180830381600087803b158015610b9f57600080fd5b610fda33346108d9565b565b8342111561104b57604080517f08c379a000000000000000000000000000000000000000000000000000000000815260206004820152601460248201527f574554483a2045787069726564207065726d6974000000000000000000000000604482015290519081900360640190fd5b604080518082018252601181527f57726170706564204574686572207631300000000000000000000000000000006020918201528151808301835260018082527f31000000000000000000000000000000000000000000000000000000000000009183019190915282517f8b73c3c69bb8fe3d512ecc4cf759cc79239f7b179b0ffacaa9a75d522b39400f818401527f5afefa023603a382ac22bd36644e004cefabbfaf61d4180000d8dc2b10c168b8818501527fc89efdaa54c0f20c7adf612882df0950f5a951637e0307cdcb4c672f298b8bc6606082015246608082018190523060a0808401919091528551808403909101815260c08301865280519085012073ffffffffffffffffffffffffffffffffffffffff8d8116600081815286885288812080548089019091557f000000000000000000000000000000000000000000000000000000000000000060e0880152610100870192909252918e1661012086015261014085018d90526101608501526101808085018c9052875180860390910181526101a0850188528051908701207f19010000000000000000000000000000000000000000000000000000000000006101c08601526101c285018390526101e2808601829052885180870390910181526102028601808a52815191890191909120908390526102228601808a5281905260ff8c1661024287015261026286018b905261028286018a90529751939792969095929491936102a2808401937fffffffffffffffffffffffffffffffffffffffffffffffffffffffffffffffe08301929081900390910190855afa1580156112ad573d6000803e3d6000fd5b50506040517fffffffffffffffffffffffffffffffffffffffffffffffffffffffffffffffe0015191505073ffffffffffffffffffffffffffffffffffffffff81161580159061132857508b73ffffffffffffffffffffffffffffffffffffffff168173ffffffffffffffffffffffffffffffffffffffff16145b61139357604080517f08c379a000000000000000000000000000000000000000000000000000000000815260206004820152601460248201527f574554483a20696e76616c6964207065726d6974000000000000000000000000604482015290519081900360640190fd5b61139e8c8c8c611458565b505050505050505050505050565b600073ffffffffffffffffffffffffffffffffffffffff8316301461143257604080517f08c379a000000000000000000000000000000000000000000000000000000000815260206004820152601c60248201527f574554483a20666c617368206d696e74206f6e6c792057455448313000000000604482015290519081900360640190fd5b50600092915050565b600260209081526000928352604080842090915290825290205481565b73ffffffffffffffffffffffffffffffffffffffff808416600081815260026020908152604080832094871680845294825291829020859055815185815291517f8c5be1e5ebec7d5bd14f71427d1e84f3dd0314c0f7b2291e5b200ac8c7c3b9259281900390910190a3505050565b73ffffffffffffffffffffffffffffffffffffffff821660009081526020819052604090205481811015611546576040517f08c379a00000000000000000000000000000000000000000000000000000000081526004018080602001828103825260218152602001806118ab6021913960400191505060405180910390fd5b73ffffffffffffffffffffffffffffffffffffffff83166000818152602081815260408083208686039055805186815290519293927fddf252ad1be2c89b69c2b068fc378daa952ba7f163c4a11628f55a4df523b3ef929181900390910190a3505050565b60405160009073ffffffffffffffffffffffffffffffffffffffff84169083908381818185875af1925050503d8060008114611603576040519150601f19603f3d011682016040523d82523d6000602084013e611608565b606091505b5050905080610ec357604080517f08c379a000000000000000000000000000000000000000000000000000000000815260206004820152601b60248201527f574554483a204574686572207472616e73666572206661696c65640000000000604482015290519081900360640190fd5b73ffffffffffffffffffffffffffffffffffffffff8084166000908152600260209081526040808320938616835292905220547fffffffffffffffffffffffffffffffffffffffffffffffffffffffffffffffff811461174e578181101561174157604080517f08c379a000000000000000000000000000000000000000000000000000000000815260206004820152601f60248201527f574554483a2072657175657374206578636565647320616c6c6f77616e636500604482015290519081900360640190fd5b61174e8484848403611458565b50505050565b600073ffffffffffffffffffffffffffffffffffffffff8316156118675773ffffffffffffffffffffffffffffffffffffffff8416600090815260208190526040902054828110156117f1576040517f08c379a00000000000000000000000000000000000000000000000000000000081526004018080602001828103825260258152602001806118866025913960400191505060405180910390fd5b73ffffffffffffffffffffffffffffffffffffffff8086166000818152602081815260408083208887039055938816808352918490208054880190558351878152935191937fddf252ad1be2c89b69c2b068fc378daa952ba7f163c4a11628f55a4df523b3ef929081900390910190a35061187b565b61187184836114c7565b61187b83836115ab565b506001939250505056fe574554483a207472616e7366657220616d6f756e7420657863656564732062616c616e6365574554483a206275726e20616d6f756e7420657863656564732062616c616e6365a26469706673582212200538a34fbe57c27bfe67fcfcb61923d2dca13287b8dfc9513c670f7fac0bff1664736f6c63430007060033",
  "devdoc": {
    "details": "WETH10 is an Ether ERC20 wrapper. You can `deposit` Ether and obtain Wrapped Ether which can then be operated as an ERC20 token. You can `withdraw` Ether from WETH10, which will burn Wrapped Ether in your wallet. The amount of Wrapped Ether in any wallet is always identical to the balance of Ether deposited minus the Ether withdrawn with that specific wallet.",
    "kind": "dev",
    "methods": {
      "approve(address,uint256)": {
        "details": "Sets `value` as allowance of `spender` account over caller account's WETH10 token. Returns boolean value indicating whether operation succeeded. Emits {Approval} event."
      },
      "approveAndCall(address,uint256,bytes)": {
        "details": "Sets `value` as allowance of `spender` account over caller account's WETH10 token, after which a call is executed on `spender` with the `data` parameter. Returns boolean value indicating whether operation succeeded. Emits {Approval} event. For more information on approveAndCall format, see https://github.com/ethereum/EIPs/issues/677."
      },
      "deposit()": {
        "details": "`msg.value` of ether sent to contract grants caller account a matching increase in WETH10 token balance. Emits {Transfer} event to reflect WETH10 token mint of `msg.value` from zero address to caller account."
      },
      "depositTo(address)": {
        "details": "`msg.value` of ether sent to contract grants `to` account a matching increase in WETH10 token balance. Emits {Transfer} event to reflect WETH10 token mint of `msg.value` from zero address to `to` account."
      },
      "depositToAndCall(address,bytes)": {
        "details": "`msg.value` of ether sent to contract grants `to` account a matching increase in WETH10 token balance, after which a call is executed to an ERC677-compliant contract. Returns boolean value indicating whether operation succeeded. Emits {Transfer} event. Requirements:   - caller account must have at least `value` WETH10 token and transfer to account (`to`) cannot cause overflow. For more information on transferAndCall format, see https://github.com/ethereum/EIPs/issues/677."
      },
      "flashFee(address,uint256)": {
        "details": "Return the fee (zero) for flash lending an amount of WETH10."
      },
      "flashLoan(address,address,uint256,bytes)": {
        "details": "Flash lends `value` WETH10 tokens to the receiver address. By the end of the transaction, `value` WETH10 tokens will be burned from the receiver. The flash minted WETH10 is not backed by real Ether, but can be withdrawn as such up to the Ether balance of this contract. Arbitrary data can be passed as a bytes calldata parameter. Emits two {Transfer} events for minting and burning of the flash minted amount."
      },
      "maxFlashAmount(address)": {
        "details": "Return the amount of WETH10 that can be flash lended."
      },
      "permit(address,address,uint256,uint256,uint8,bytes32,bytes32)": {
        "details": "Sets `value` as allowance of `spender` account over `owner` account's WETH10 token, given `owner` account's signed approval. Emits {Approval} event. Requirements:   - `deadline` must be timestamp in future.   - `v`, `r` and `s` must be valid `secp256k1` signature from `owner` account over EIP712-formatted function arguments.   - the signature must use `owner` account's current nonce (see {nonces}).   - the signer cannot be zero address and must be `owner` account. For more information on signature format, see https://eips.ethereum.org/EIPS/eip-2612#specification[relevant EIP section]. WETH10 token implementation adapted from https://github.com/albertocuestacanada/ERC20Permit/blob/master/contracts/ERC20Permit.sol."
      },
      "totalSupply()": {
        "details": "Returns the total supply of WETH10 as the Ether held in this contract."
      },
      "transfer(address,uint256)": {
        "details": "Moves `value` WETH10 token from caller's account to account (`to`). A transfer to `address(0)` triggers a withdraw of the sent tokens. Returns boolean value indicating whether operation succeeded. Emits {Transfer} event. Requirements:   - caller account must have at least `value` WETH10 token."
      },
      "transferAndCall(address,uint256,bytes)": {
        "details": "Moves `value` WETH10 token from caller's account to account (`to`), after which a call is executed to an ERC677-compliant contract. Returns boolean value indicating whether operation succeeded. Emits {Transfer} event. Requirements:   - caller account must have at least `value` WETH10 token. For more information on transferAndCall format, see https://github.com/ethereum/EIPs/issues/677."
      },
      "transferFrom(address,address,uint256)": {
        "details": "Moves `value` WETH10 token from account (`from`) to account (`to`) using allowance mechanism. `value` is then deducted from caller account's allowance, unless set to `type(uint256).max`. A transfer to `address(0)` triggers a withdraw of the sent tokens in favor of caller. Returns boolean value indicating whether operation succeeded. Emits {Transfer} and {Approval} events. Requirements: - owner account (`from`) must have at least `value` WETH10 token. - caller account must have at least `value` allowance from account (`from`)."
      },
      "withdraw(uint256)": {
        "details": "Burn `value` WETH10 token from caller account and withdraw matching ether to the same. Emits {Transfer} event to reflect WETH10 token burn of `value` WETH10 token to zero address from caller account.  Requirements:   - caller account must have at least `value` balance of WETH10 token."
      },
      "withdrawFrom(address,address,uint256)": {
        "details": "Burn `value` WETH10 token from account (`from`) and withdraw matching ether to account (`to`). Emits {Approval} event to reflect reduced allowance `value` for caller account to spend from account (`from`), unless allowance is set to `type(uint256).max` Emits {Transfer} event to reflect WETH10 token burn of `value` to zero address from account (`from`). Requirements:   - `from` account must have at least `value` balance of WETH10 token.   - `from` account must have approved caller to spend at least `value` of WETH10 token, unless `from` and caller are the same account."
      },
      "withdrawTo(address,uint256)": {
        "details": "Burn `value` WETH10 token from caller account and withdraw matching ether to account (`to`). Emits {Transfer} event to reflect WETH10 token burn of `value` WETH10 token to zero address from caller account. Requirements:   - caller account must have at least `value` balance of WETH10 token."
      }
    },
    "stateVariables": {
      "allowance": {
        "details": "Records number of WETH10 token that account (second) will be allowed to spend on behalf of another account (first) through {transferFrom}."
      },
      "balanceOf": {
        "details": "Records amount of WETH10 token owned by account."
      },
      "flashMinted": {
        "details": "Current amount of flash minted WETH."
      },
      "nonces": {
        "details": "Records current ERC2612 nonce for account. This value must be included whenever signature is generated for {permit}. Every successful call to {permit} increases account's nonce by one. This prevents signature from being used multiple times."
      }
    },
    "version": 1
  },
  "userdoc": {
    "kind": "user",
    "methods": {},
    "version": 1
  },
  "storageLayout": {
    "storage": [
      {
        "astId": 50,
        "contract": "contracts/WETH10.sol:WETH10",
        "label": "balanceOf",
        "offset": 0,
        "slot": "0",
        "type": "t_mapping(t_address,t_uint256)"
      },
      {
        "astId": 56,
        "contract": "contracts/WETH10.sol:WETH10",
        "label": "nonces",
        "offset": 0,
        "slot": "1",
        "type": "t_mapping(t_address,t_uint256)"
      },
      {
        "astId": 64,
        "contract": "contracts/WETH10.sol:WETH10",
        "label": "allowance",
        "offset": 0,
        "slot": "2",
        "type": "t_mapping(t_address,t_mapping(t_address,t_uint256))"
      },
      {
        "astId": 68,
        "contract": "contracts/WETH10.sol:WETH10",
        "label": "flashMinted",
        "offset": 0,
        "slot": "3",
        "type": "t_uint256"
      }
    ],
    "types": {
      "t_address": {
        "encoding": "inplace",
        "label": "address",
        "numberOfBytes": "20"
      },
      "t_mapping(t_address,t_mapping(t_address,t_uint256))": {
        "encoding": "mapping",
        "key": "t_address",
        "label": "mapping(address => mapping(address => uint256))",
        "numberOfBytes": "32",
        "value": "t_mapping(t_address,t_uint256)"
      },
      "t_mapping(t_address,t_uint256)": {
        "encoding": "mapping",
        "key": "t_address",
        "label": "mapping(address => uint256)",
        "numberOfBytes": "32",
        "value": "t_uint256"
      },
      "t_uint256": {
        "encoding": "inplace",
        "label": "uint256",
        "numberOfBytes": "32"
      }
    }
  },
  "gasEstimates": {
    "creation": {
      "codeDepositCost": "1280200",
      "executionCost": "infinite",
      "totalCost": "infinite"
    },
    "external": {
      "PERMIT_TYPEHASH()": "infinite",
      "allowance(address,address)": "1293",
      "approve(address,uint256)": "22364",
      "approveAndCall(address,uint256,bytes)": "infinite",
      "balanceOf(address)": "1161",
      "decimals()": "297",
      "deposit()": "23790",
      "depositTo(address)": "23797",
      "depositToAndCall(address,bytes)": "infinite",
      "flashFee(address,uint256)": "399",
      "flashLoan(address,address,uint256,bytes)": "infinite",
      "flashMinted()": "1088",
      "maxFlashAmount(address)": "1190",
      "name()": "infinite",
      "nonces(address)": "1180",
      "permit(address,address,uint256,uint256,uint8,bytes32,bytes32)": "infinite",
      "symbol()": "infinite",
      "totalSupply()": "1052",
      "transfer(address,uint256)": "infinite",
      "transferAndCall(address,uint256,bytes)": "infinite",
      "transferFrom(address,address,uint256)": "infinite",
      "withdraw(uint256)": "infinite",
      "withdrawFrom(address,address,uint256)": "infinite",
      "withdrawTo(address,uint256)": "infinite"
    },
    "internal": {
      "_approve(address,address,uint256)": "infinite",
      "_burnFrom(address,uint256)": "infinite",
      "_decreaseAllowance(address,address,uint256)": "infinite",
      "_mintTo(address,uint256)": "infinite",
      "_transferEther(address payable,uint256)": "infinite",
      "_transferFrom(address,address,uint256)": "infinite"
    }
  }
}