{
  "address": "0xA3130e9A016Bb7B324Df9b5CeB99865c0691BeA8",
  "abi": [
    {
      "inputs": [
        {
          "internalType": "address",
          "name": "weth9_",
          "type": "address"
        }
      ],
      "stateMutability": "nonpayable",
      "type": "constructor"
    },
    {
      "anonymous": false,
      "inputs": [
        {
          "indexed": true,
          "internalType": "address",
          "name": "owner",
          "type": "address"
        },
        {
          "indexed": true,
          "internalType": "address",
          "name": "spender",
          "type": "address"
        },
        {
          "indexed": false,
          "internalType": "uint256",
          "name": "value",
          "type": "uint256"
        }
      ],
      "name": "Approval",
      "type": "event"
    },
    {
      "anonymous": false,
      "inputs": [
        {
          "indexed": true,
          "internalType": "address",
          "name": "from",
          "type": "address"
        },
        {
          "indexed": true,
          "internalType": "address",
          "name": "to",
          "type": "address"
        },
        {
          "indexed": false,
          "internalType": "uint256",
          "name": "value",
          "type": "uint256"
        }
      ],
      "name": "Transfer",
      "type": "event"
    },
    {
      "inputs": [],
      "name": "PERMIT_TYPEHASH",
      "outputs": [
        {
          "internalType": "bytes32",
          "name": "",
          "type": "bytes32"
        }
      ],
      "stateMutability": "view",
      "type": "function"
    },
    {
      "inputs": [
        {
          "internalType": "address",
          "name": "",
          "type": "address"
        },
        {
          "internalType": "address",
          "name": "",
          "type": "address"
        }
      ],
      "name": "allowance",
      "outputs": [
        {
          "internalType": "uint256",
          "name": "",
          "type": "uint256"
        }
      ],
      "stateMutability": "view",
      "type": "function"
    },
    {
      "inputs": [
        {
          "internalType": "address",
          "name": "spender",
          "type": "address"
        },
        {
          "internalType": "uint256",
          "name": "value",
          "type": "uint256"
        }
      ],
      "name": "approve",
      "outputs": [
        {
          "internalType": "bool",
          "name": "",
          "type": "bool"
        }
      ],
      "stateMutability": "nonpayable",
      "type": "function"
    },
    {
      "inputs": [
        {
          "internalType": "address",
          "name": "",
          "type": "address"
        }
      ],
      "name": "balanceOf",
      "outputs": [
        {
          "internalType": "uint256",
          "name": "",
          "type": "uint256"
        }
      ],
      "stateMutability": "view",
      "type": "function"
    },
    {
      "inputs": [
        {
          "internalType": "uint256",
          "name": "value",
          "type": "uint256"
        }
      ],
      "name": "convert",
      "outputs": [],
      "stateMutability": "nonpayable",
      "type": "function"
    },
    {
      "inputs": [
        {
          "internalType": "address",
          "name": "from",
          "type": "address"
        },
        {
          "internalType": "address",
          "name": "to",
          "type": "address"
        },
        {
          "internalType": "uint256",
          "name": "value",
          "type": "uint256"
        }
      ],
      "name": "convertFrom",
      "outputs": [],
      "stateMutability": "nonpayable",
      "type": "function"
    },
    {
      "inputs": [
        {
          "internalType": "address",
          "name": "to",
          "type": "address"
        },
        {
          "internalType": "uint256",
          "name": "value",
          "type": "uint256"
        }
      ],
      "name": "convertTo",
      "outputs": [],
      "stateMutability": "nonpayable",
      "type": "function"
    },
    {
      "inputs": [],
      "name": "decimals",
      "outputs": [
        {
          "internalType": "uint8",
          "name": "",
          "type": "uint8"
        }
      ],
      "stateMutability": "view",
      "type": "function"
    },
    {
      "inputs": [],
      "name": "deposit",
      "outputs": [],
      "stateMutability": "payable",
      "type": "function"
    },
    {
      "inputs": [
        {
          "internalType": "address",
          "name": "to",
          "type": "address"
        }
      ],
      "name": "depositTo",
      "outputs": [],
      "stateMutability": "payable",
      "type": "function"
    },
    {
      "inputs": [
        {
          "internalType": "address",
          "name": "to",
          "type": "address"
        },
        {
          "internalType": "bytes",
          "name": "data",
          "type": "bytes"
        }
      ],
      "name": "depositToAndCall",
      "outputs": [
        {
          "internalType": "bool",
          "name": "success",
          "type": "bool"
        }
      ],
      "stateMutability": "payable",
      "type": "function"
    },
    {
      "inputs": [
        {
          "internalType": "uint256",
          "name": "value",
          "type": "uint256"
        },
        {
          "internalType": "bytes",
          "name": "data",
          "type": "bytes"
        }
      ],
      "name": "flashMint",
      "outputs": [],
      "stateMutability": "nonpayable",
      "type": "function"
    },
    {
      "inputs": [],
      "name": "flashSupply",
      "outputs": [
        {
          "internalType": "uint256",
          "name": "",
          "type": "uint256"
        }
      ],
      "stateMutability": "view",
      "type": "function"
    },
    {
      "inputs": [],
      "name": "name",
      "outputs": [
        {
          "internalType": "string",
          "name": "",
          "type": "string"
        }
      ],
      "stateMutability": "view",
      "type": "function"
    },
    {
      "inputs": [
        {
          "internalType": "address",
          "name": "",
          "type": "address"
        }
      ],
      "name": "nonces",
      "outputs": [
        {
          "internalType": "uint256",
          "name": "",
          "type": "uint256"
        }
      ],
      "stateMutability": "view",
      "type": "function"
    },
    {
      "inputs": [
        {
          "internalType": "address",
          "name": "owner",
          "type": "address"
        },
        {
          "internalType": "address",
          "name": "spender",
          "type": "address"
        },
        {
          "internalType": "uint256",
          "name": "value",
          "type": "uint256"
        },
        {
          "internalType": "uint256",
          "name": "deadline",
          "type": "uint256"
        },
        {
          "internalType": "uint8",
          "name": "v",
          "type": "uint8"
        },
        {
          "internalType": "bytes32",
          "name": "r",
          "type": "bytes32"
        },
        {
          "internalType": "bytes32",
          "name": "s",
          "type": "bytes32"
        }
      ],
      "name": "permit",
      "outputs": [],
      "stateMutability": "nonpayable",
      "type": "function"
    },
    {
      "inputs": [],
      "name": "symbol",
      "outputs": [
        {
          "internalType": "string",
          "name": "",
          "type": "string"
        }
      ],
      "stateMutability": "view",
      "type": "function"
    },
    {
      "inputs": [],
      "name": "totalSupply",
      "outputs": [
        {
          "internalType": "uint256",
          "name": "",
          "type": "uint256"
        }
      ],
      "stateMutability": "view",
      "type": "function"
    },
    {
      "inputs": [
        {
          "internalType": "address",
          "name": "to",
          "type": "address"
        },
        {
          "internalType": "uint256",
          "name": "value",
          "type": "uint256"
        }
      ],
      "name": "transfer",
      "outputs": [
        {
          "internalType": "bool",
          "name": "",
          "type": "bool"
        }
      ],
      "stateMutability": "nonpayable",
      "type": "function"
    },
    {
      "inputs": [
        {
          "internalType": "address",
          "name": "to",
          "type": "address"
        },
        {
          "internalType": "uint256",
          "name": "value",
          "type": "uint256"
        },
        {
          "internalType": "bytes",
          "name": "data",
          "type": "bytes"
        }
      ],
      "name": "transferAndCall",
      "outputs": [
        {
          "internalType": "bool",
          "name": "success",
          "type": "bool"
        }
      ],
      "stateMutability": "nonpayable",
      "type": "function"
    },
    {
      "inputs": [
        {
          "internalType": "address",
          "name": "from",
          "type": "address"
        },
        {
          "internalType": "address",
          "name": "to",
          "type": "address"
        },
        {
          "internalType": "uint256",
          "name": "value",
          "type": "uint256"
        }
      ],
      "name": "transferFrom",
      "outputs": [
        {
          "internalType": "bool",
          "name": "",
          "type": "bool"
        }
      ],
      "stateMutability": "nonpayable",
      "type": "function"
    },
    {
      "inputs": [],
      "name": "weth9",
      "outputs": [
        {
          "internalType": "contract WETH9Like",
          "name": "",
          "type": "address"
        }
      ],
      "stateMutability": "view",
      "type": "function"
    },
    {
      "inputs": [
        {
          "internalType": "uint256",
          "name": "value",
          "type": "uint256"
        }
      ],
      "name": "withdraw",
      "outputs": [],
      "stateMutability": "nonpayable",
      "type": "function"
    },
    {
      "inputs": [
        {
          "internalType": "address",
          "name": "from",
          "type": "address"
        },
        {
          "internalType": "address",
          "name": "to",
          "type": "address"
        },
        {
          "internalType": "uint256",
          "name": "value",
          "type": "uint256"
        }
      ],
      "name": "withdrawFrom",
      "outputs": [],
      "stateMutability": "nonpayable",
      "type": "function"
    },
    {
      "inputs": [
        {
          "internalType": "address",
          "name": "to",
          "type": "address"
        },
        {
          "internalType": "uint256",
          "name": "value",
          "type": "uint256"
        }
      ],
      "name": "withdrawTo",
      "outputs": [],
      "stateMutability": "nonpayable",
      "type": "function"
    },
    {
      "stateMutability": "payable",
      "type": "receive"
    }
  ],
  "transactionHash": "0x7fb648bbb69c5c56c367681eaa38882df04b1355640f30d5f72c36c058851b0e",
  "args": [
    "0x0000000000000000000000000000000000000000"
  ],
  "solcInputHash": "0x7510dd6e707525c64010d4ab2e730cb1208b76454940e21d94acf8681b8681af",
  "bytecode": "0x60c06040527f6e71edae12b1b97f4d1f60370fef10105fa2faae0126114a169c64845d6126c960805234801561003457600080fd5b50604051612dcd380380612dcd8339818101604052602081101561005757600080fd5b5051606081901b6001600160601b03191660a052608051906001600160a01b0316612d156100b86000398061115752806111d852806114b05280611ccb5280611d4c5280611ee25280611fab525080610eed52806124aa5250612d156000f3fe60806040526004361061019a5760003560e01c8063582daafe116100e15780639bfa51811161008a578063b760faf911610064578063b760faf91461083f578063d0e30db014610872578063d505accf1461087a578063dd62ed3e146108e55761023f565b80639bfa518114610789578063a3908e1b146107cf578063a9059cbb146107f95761023f565b80637ecebe00116100bb5780637ecebe00146106e45780639555a9421461072457806395d89b41146107745761023f565b8063582daafe146106025780635ddb7d7e1461061757806370a08231146106a45761023f565b806330adf81f116101435780634000aea01161011d5780634000aea0146104a157806350879c1c14610540578063522c80671461057e5761023f565b806330adf81f14610411578063313ce5671461042657806332ff99d1146104515761023f565b8063205c287811610174578063205c28781461034f57806323b872dd146103975780632e1a7d4d146103e75761023f565b806306fdde0314610244578063095ea7b3146102ce57806318160ddd146103285761023f565b3661023f576dffffffffffffffffffffffffffff8016600354470111156101f25760405162461bcd60e51b81526004018080602001828103825260248152602001806129586024913960400191505060405180910390fd5b33600081815260208181526040808320805434908101909155815190815290517fddf252ad1be2c89b69c2b068fc378daa952ba7f163c4a11628f55a4df523b3ef929181900390910190a3005b600080fd5b34801561025057600080fd5b5061025961092d565b6040805160208082528351818301528351919283929083019185019080838360005b8381101561029357818101518382015260200161027b565b50505050905090810190601f1680156102c05780820380516001836020036101000a031916815260200191505b509250505060405180910390f35b3480156102da57600080fd5b50610314600480360360408110156102f157600080fd5b5073ffffffffffffffffffffffffffffffffffffffff8135169060200135610966565b604080519115158252519081900360200190f35b34801561033457600080fd5b5061033d6109d9565b60408051918252519081900360200190f35b34801561035b57600080fd5b506103956004803603604081101561037257600080fd5b5073ffffffffffffffffffffffffffffffffffffffff81351690602001356109dd565b005b3480156103a357600080fd5b50610314600480360360608110156103ba57600080fd5b5073ffffffffffffffffffffffffffffffffffffffff813581169160208101359091169060400135610b6c565b3480156103f357600080fd5b506103956004803603602081101561040a57600080fd5b5035610dc7565b34801561041d57600080fd5b5061033d610eeb565b34801561043257600080fd5b5061043b610f0f565b6040805160ff9092168252519081900360200190f35b34801561045d57600080fd5b506103956004803603606081101561047457600080fd5b5073ffffffffffffffffffffffffffffffffffffffff813581169160208101359091169060400135610f14565b3480156104ad57600080fd5b50610314600480360360608110156104c457600080fd5b73ffffffffffffffffffffffffffffffffffffffff8235169160208101359181019060608101604082013564010000000081111561050157600080fd5b82018360208201111561051357600080fd5b8035906020019184600183028401116401000000008311171561053557600080fd5b5090925090506112d3565b34801561054c57600080fd5b506105556114ae565b6040805173ffffffffffffffffffffffffffffffffffffffff9092168252519081900360200190f35b34801561058a57600080fd5b50610395600480360360408110156105a157600080fd5b813591908101906040810160208201356401000000008111156105c357600080fd5b8201836020820111156105d557600080fd5b803590602001918460018302840111640100000000831117156105f757600080fd5b5090925090506114d2565b34801561060e57600080fd5b5061033d6116ba565b6103146004803603604081101561062d57600080fd5b73ffffffffffffffffffffffffffffffffffffffff823516919081019060408101602082013564010000000081111561066557600080fd5b82018360208201111561067757600080fd5b8035906020019184600183028401116401000000008311171561069957600080fd5b5090925090506116c0565b3480156106b057600080fd5b5061033d600480360360208110156106c757600080fd5b503573ffffffffffffffffffffffffffffffffffffffff16611897565b3480156106f057600080fd5b5061033d6004803603602081101561070757600080fd5b503573ffffffffffffffffffffffffffffffffffffffff166118a9565b34801561073057600080fd5b506103956004803603606081101561074757600080fd5b5073ffffffffffffffffffffffffffffffffffffffff8135811691602081013590911690604001356118bb565b34801561078057600080fd5b50610259611ba1565b34801561079557600080fd5b50610395600480360360408110156107ac57600080fd5b5073ffffffffffffffffffffffffffffffffffffffff8135169060200135611bda565b3480156107db57600080fd5b50610395600480360360208110156107f257600080fd5b5035611e46565b34801561080557600080fd5b506103146004803603604081101561081c57600080fd5b5073ffffffffffffffffffffffffffffffffffffffff813516906020013561205e565b6103956004803603602081101561085557600080fd5b503573ffffffffffffffffffffffffffffffffffffffff1661217a565b610395612286565b34801561088657600080fd5b50610395600480360360e081101561089d57600080fd5b5073ffffffffffffffffffffffffffffffffffffffff813581169160208101359091169060408101359060608101359060ff6080820135169060a08101359060c00135612326565b3480156108f157600080fd5b5061033d6004803603604081101561090857600080fd5b5073ffffffffffffffffffffffffffffffffffffffff8135811691602001351661279d565b6040518060400160405280601181526020017f577261707065642045746865722076313000000000000000000000000000000081525081565b33600081815260026020908152604080832073ffffffffffffffffffffffffffffffffffffffff8716808552908352818420869055815186815291519394909390927f8c5be1e5ebec7d5bd14f71427d1e84f3dd0314c0f7b2291e5b200ac8c7c3b925928290030190a350600192915050565b4790565b33600090815260208190526040902054811115610a2b5760405162461bcd60e51b8152600401808060200182810382526031815260200180612b1e6031913960400191505060405180910390fd5b73ffffffffffffffffffffffffffffffffffffffff8216301415610a805760405162461bcd60e51b8152600401808060200182810382526023815260200180612cbd6023913960400191505060405180910390fd5b33600090815260208190526040808220805484900390555173ffffffffffffffffffffffffffffffffffffffff84169083908381818185875af1925050503d8060008114610aea576040519150601f19603f3d011682016040523d82523d6000602084013e610aef565b606091505b5050905080610b2f5760405162461bcd60e51b815260040180806020018281038252602781526020018061285d6027913960400191505060405180910390fd5b60408051838152905160009133917fddf252ad1be2c89b69c2b068fc378daa952ba7f163c4a11628f55a4df523b3ef9181900360200190a3505050565b73ffffffffffffffffffffffffffffffffffffffff8316600090815260208190526040812054821115610bd05760405162461bcd60e51b8152600401808060200182810382526033815260200180612bd66033913960400191505060405180910390fd5b73ffffffffffffffffffffffffffffffffffffffff8316301415610c255760405162461bcd60e51b81526004018080602001828103825260258152602001806128386025913960400191505060405180910390fd5b73ffffffffffffffffffffffffffffffffffffffff84163314610d4b5773ffffffffffffffffffffffffffffffffffffffff841660009081526002602090815260408083203384529091529020547fffffffffffffffffffffffffffffffffffffffffffffffffffffffffffffffff8114610d495782811015610cd95760405162461bcd60e51b81526004018080602001828103825260358152602001806129236035913960400191505060405180910390fd5b73ffffffffffffffffffffffffffffffffffffffff85166000818152600260209081526040808320338085529083529281902087860390819055815190815290519293927f8c5be1e5ebec7d5bd14f71427d1e84f3dd0314c0f7b2291e5b200ac8c7c3b925929181900390910190a35b505b73ffffffffffffffffffffffffffffffffffffffff80851660008181526020818152604080832080548890039055938716808352918490208054870190558351868152935191937fddf252ad1be2c89b69c2b068fc378daa952ba7f163c4a11628f55a4df523b3ef929081900390910190a35060019392505050565b33600090815260208190526040902054811115610e155760405162461bcd60e51b815260040180806020018281038252602f8152602001806129a5602f913960400191505060405180910390fd5b33600081815260208190526040808220805485900390555190919083908381818185875af1925050503d8060008114610e6a576040519150601f19603f3d011682016040523d82523d6000602084013e610e6f565b606091505b5050905080610eaf5760405162461bcd60e51b8152600401808060200182810382526025815260200180612c6b6025913960400191505060405180910390fd5b60408051838152905160009133917fddf252ad1be2c89b69c2b068fc378daa952ba7f163c4a11628f55a4df523b3ef9181900360200190a35050565b7f000000000000000000000000000000000000000000000000000000000000000081565b601281565b73ffffffffffffffffffffffffffffffffffffffff8316600090815260208190526040902054811115610f785760405162461bcd60e51b8152600401808060200182810382526031815260200180612a236031913960400191505060405180910390fd5b73ffffffffffffffffffffffffffffffffffffffff8216301415610fcd5760405162461bcd60e51b8152600401808060200182810382526024815260200180612afa6024913960400191505060405180910390fd5b73ffffffffffffffffffffffffffffffffffffffff831633146110f35773ffffffffffffffffffffffffffffffffffffffff831660009081526002602090815260408083203384529091529020547fffffffffffffffffffffffffffffffffffffffffffffffffffffffffffffffff81146110f157818110156110815760405162461bcd60e51b8152600401808060200182810382526033815260200180612ba36033913960400191505060405180910390fd5b73ffffffffffffffffffffffffffffffffffffffff84166000818152600260209081526040808320338085529083529281902086860390819055815190815290519293927f8c5be1e5ebec7d5bd14f71427d1e84f3dd0314c0f7b2291e5b200ac8c7c3b925929181900390910190a35b505b73ffffffffffffffffffffffffffffffffffffffff831660008181526020818152604080832080548690039055805185815290519293927fddf252ad1be2c89b69c2b068fc378daa952ba7f163c4a11628f55a4df523b3ef929181900390910190a37f000000000000000000000000000000000000000000000000000000000000000073ffffffffffffffffffffffffffffffffffffffff1663d0e30db0826040518263ffffffff1660e01b81526004016000604051808303818588803b1580156111bd57600080fd5b505af11580156111d1573d6000803e3d6000fd5b50505050507f000000000000000000000000000000000000000000000000000000000000000073ffffffffffffffffffffffffffffffffffffffff1663a9059cbb83836040518363ffffffff1660e01b8152600401808373ffffffffffffffffffffffffffffffffffffffff16815260200182815260200192505050602060405180830381600087803b15801561126757600080fd5b505af115801561127b573d6000803e3d6000fd5b505050506040513d602081101561129157600080fd5b50516112ce5760405162461bcd60e51b8152600401808060200182810382526023815260200180612ad76023913960400191505060405180910390fd5b505050565b336000908152602081905260408120548411156113215760405162461bcd60e51b81526004018080602001828103825260368152602001806127bb6036913960400191505060405180910390fd5b73ffffffffffffffffffffffffffffffffffffffff85163014156113765760405162461bcd60e51b8152600401808060200182810382526028815260200180612aaf6028913960400191505060405180910390fd5b336000818152602081815260408083208054899003905573ffffffffffffffffffffffffffffffffffffffff891680845292819020805489019055805188815290519293927fddf252ad1be2c89b69c2b068fc378daa952ba7f163c4a11628f55a4df523b3ef929181900390910190a38473ffffffffffffffffffffffffffffffffffffffff1663a4c0ed36338686866040518563ffffffff1660e01b8152600401808573ffffffffffffffffffffffffffffffffffffffff168152602001848152602001806020018281038252848482818152602001925080828437600081840152601f19601f82011690508083019250505095505050505050600060405180830381600087803b15801561148b57600080fd5b505af115801561149f573d6000803e3d6000fd5b50600198975050505050505050565b7f000000000000000000000000000000000000000000000000000000000000000081565b600380548401908190556dffffffffffffffffffffffffffff47909101111561152c5760405162461bcd60e51b81526004018080602001828103825260268152602001806128846026913960400191505060405180910390fd5b33600081815260208181526040808320805488019055805187815290517fddf252ad1be2c89b69c2b068fc378daa952ba7f163c4a11628f55a4df523b3ef929181900390910190a36040517f19f5fdd70000000000000000000000000000000000000000000000000000000081526020600482019081526024820183905233916319f5fdd79185918591908190604401848480828437600081840152601f19601f8201169050808301925050509350505050600060405180830381600087803b1580156115f857600080fd5b505af115801561160c573d6000803e3d6000fd5b505033600090815260208190526040902054851115915061166090505760405162461bcd60e51b8152600401808060200182810382526030815260200180612b736030913960400191505060405180910390fd5b3360008181526020818152604080832080548890039055600380548890039055805187815290519293927fddf252ad1be2c89b69c2b068fc378daa952ba7f163c4a11628f55a4df523b3ef929181900390910190a3505050565b60035481565b60006dffffffffffffffffffffffffffff8016600354470111156117155760405162461bcd60e51b815260040180806020018281038252602d8152602001806129f6602d913960400191505060405180910390fd5b73ffffffffffffffffffffffffffffffffffffffff841630141561176a5760405162461bcd60e51b815260040180806020018281038252602981526020018061297c6029913960400191505060405180910390fd5b73ffffffffffffffffffffffffffffffffffffffff8416600081815260208181526040808320805434908101909155815190815290517fddf252ad1be2c89b69c2b068fc378daa952ba7f163c4a11628f55a4df523b3ef929181900390910190a36040517fa4c0ed36000000000000000000000000000000000000000000000000000000008152336004820181815234602484018190526060604485019081526064850187905273ffffffffffffffffffffffffffffffffffffffff89169463a4c0ed36949389928992608401848480828437600081840152601f19601f82011690508083019250505095505050505050600060405180830381600087803b15801561187557600080fd5b505af1158015611889573d6000803e3d6000fd5b506001979650505050505050565b60006020819052908152604090205481565b60016020526000908152604090205481565b73ffffffffffffffffffffffffffffffffffffffff831660009081526020819052604090205481111561191f5760405162461bcd60e51b8152600401808060200182810382526033815260200180612c096033913960400191505060405180910390fd5b73ffffffffffffffffffffffffffffffffffffffff82163014156119745760405162461bcd60e51b81526004018080602001828103825260258152602001806127f16025913960400191505060405180910390fd5b73ffffffffffffffffffffffffffffffffffffffff83163314611a9a5773ffffffffffffffffffffffffffffffffffffffff831660009081526002602090815260408083203384529091529020547fffffffffffffffffffffffffffffffffffffffffffffffffffffffffffffffff8114611a985781811015611a285760405162461bcd60e51b8152600401808060200182810382526035815260200180612a546035913960400191505060405180910390fd5b73ffffffffffffffffffffffffffffffffffffffff84166000818152600260209081526040808320338085529083529281902086860390819055815190815290519293927f8c5be1e5ebec7d5bd14f71427d1e84f3dd0314c0f7b2291e5b200ac8c7c3b925929181900390910190a35b505b73ffffffffffffffffffffffffffffffffffffffff8084166000908152602081905260408082208054859003905551909184169083908381818185875af1925050503d8060008114611b08576040519150601f19603f3d011682016040523d82523d6000602084013e611b0d565b606091505b5050905080611b4d5760405162461bcd60e51b81526004018080602001828103825260298152602001806128d96029913960400191505060405180910390fd5b60408051838152905160009173ffffffffffffffffffffffffffffffffffffffff8716917fddf252ad1be2c89b69c2b068fc378daa952ba7f163c4a11628f55a4df523b3ef9181900360200190a350505050565b6040518060400160405280600681526020017f574554483130000000000000000000000000000000000000000000000000000081525081565b33600090815260208190526040902054811115611c285760405162461bcd60e51b815260040180806020018281038252602f8152602001806128aa602f913960400191505060405180910390fd5b73ffffffffffffffffffffffffffffffffffffffff8216301415611c7d5760405162461bcd60e51b81526004018080602001828103825260228152602001806128166022913960400191505060405180910390fd5b3360008181526020818152604080832080548690039055805185815290519293927fddf252ad1be2c89b69c2b068fc378daa952ba7f163c4a11628f55a4df523b3ef929181900390910190a37f000000000000000000000000000000000000000000000000000000000000000073ffffffffffffffffffffffffffffffffffffffff1663d0e30db0826040518263ffffffff1660e01b81526004016000604051808303818588803b158015611d3157600080fd5b505af1158015611d45573d6000803e3d6000fd5b50505050507f000000000000000000000000000000000000000000000000000000000000000073ffffffffffffffffffffffffffffffffffffffff1663a9059cbb83836040518363ffffffff1660e01b8152600401808373ffffffffffffffffffffffffffffffffffffffff16815260200182815260200192505050602060405180830381600087803b158015611ddb57600080fd5b505af1158015611def573d6000803e3d6000fd5b505050506040513d6020811015611e0557600080fd5b5051611e425760405162461bcd60e51b8152600401808060200182810382526023815260200180612ad76023913960400191505060405180910390fd5b5050565b33600090815260208190526040902054811115611e945760405162461bcd60e51b815260040180806020018281038252602d815260200180612c90602d913960400191505060405180910390fd5b3360008181526020818152604080832080548690039055805185815290519293927fddf252ad1be2c89b69c2b068fc378daa952ba7f163c4a11628f55a4df523b3ef929181900390910190a37f000000000000000000000000000000000000000000000000000000000000000073ffffffffffffffffffffffffffffffffffffffff1663d0e30db0826040518263ffffffff1660e01b81526004016000604051808303818588803b158015611f4857600080fd5b505af1158015611f5c573d6000803e3d6000fd5b5050604080517fa9059cbb00000000000000000000000000000000000000000000000000000000815233600482015260248101869052905173ffffffffffffffffffffffffffffffffffffffff7f000000000000000000000000000000000000000000000000000000000000000016945063a9059cbb9350604480830193506020928290030181600087803b158015611ff457600080fd5b505af1158015612008573d6000803e3d6000fd5b505050506040513d602081101561201e57600080fd5b505161205b5760405162461bcd60e51b8152600401808060200182810382526023815260200180612ad76023913960400191505060405180910390fd5b50565b336000908152602081905260408120548211156120ac5760405162461bcd60e51b815260040180806020018281038252602f815260200180612c3c602f913960400191505060405180910390fd5b73ffffffffffffffffffffffffffffffffffffffff83163014156121015760405162461bcd60e51b81526004018080602001828103825260218152602001806129026021913960400191505060405180910390fd5b336000818152602081815260408083208054879003905573ffffffffffffffffffffffffffffffffffffffff871680845292819020805487019055805186815290519293927fddf252ad1be2c89b69c2b068fc378daa952ba7f163c4a11628f55a4df523b3ef929181900390910190a350600192915050565b6dffffffffffffffffffffffffffff8016600354470111156121cd5760405162461bcd60e51b8152600401808060200182810382526026815260200180612a896026913960400191505060405180910390fd5b73ffffffffffffffffffffffffffffffffffffffff81163014156122225760405162461bcd60e51b81526004018080602001828103825260228152602001806129d46022913960400191505060405180910390fd5b73ffffffffffffffffffffffffffffffffffffffff8116600081815260208181526040808320805434908101909155815190815290517fddf252ad1be2c89b69c2b068fc378daa952ba7f163c4a11628f55a4df523b3ef929181900390910190a350565b6dffffffffffffffffffffffffffff8016600354470111156122d95760405162461bcd60e51b8152600401808060200182810382526024815260200180612b4f6024913960400191505060405180910390fd5b33600081815260208181526040808320805434908101909155815190815290517fddf252ad1be2c89b69c2b068fc378daa952ba7f163c4a11628f55a4df523b3ef929181900390910190a3565b8342111561237b576040805162461bcd60e51b815260206004820152601c60248201527f574554483a3a7065726d69743a2045787069726564207065726d697400000000604482015290519081900360640190fd5b604080518082018252601181527f57726170706564204574686572207631300000000000000000000000000000006020918201528151808301835260018082527f31000000000000000000000000000000000000000000000000000000000000009183019190915282517f8b73c3c69bb8fe3d512ecc4cf759cc79239f7b179b0ffacaa9a75d522b39400f818401527f5afefa023603a382ac22bd36644e004cefabbfaf61d4180000d8dc2b10c168b8818501527fc89efdaa54c0f20c7adf612882df0950f5a951637e0307cdcb4c672f298b8bc6606082015246608082018190523060a0808401919091528551808403909101815260c08301865280519085012073ffffffffffffffffffffffffffffffffffffffff8d8116600081815286885288812080548089019091557f000000000000000000000000000000000000000000000000000000000000000060e0880152610100870192909252918e1661012086015261014085018d90526101608501526101808085018c9052875180860390910181526101a0850188528051908701207f19010000000000000000000000000000000000000000000000000000000000006101c08601526101c285018390526101e2808601829052885180870390910181526102028601808a52815191890191909120908390526102228601808a5281905260ff8c1661024287015261026286018b905261028286018a90529751939792969095929491936102a2808401937fffffffffffffffffffffffffffffffffffffffffffffffffffffffffffffffe08301929081900390910190855afa1580156125dd573d6000803e3d6000fd5b50506040517fffffffffffffffffffffffffffffffffffffffffffffffffffffffffffffffe0015191505073ffffffffffffffffffffffffffffffffffffffff81161580159061265857508b73ffffffffffffffffffffffffffffffffffffffff168173ffffffffffffffffffffffffffffffffffffffff16145b6126a9576040805162461bcd60e51b815260206004820152601c60248201527f574554483a3a7065726d69743a20696e76616c6964207065726d697400000000604482015290519081900360640190fd5b89600260008e73ffffffffffffffffffffffffffffffffffffffff1673ffffffffffffffffffffffffffffffffffffffff16815260200190815260200160002060008d73ffffffffffffffffffffffffffffffffffffffff1673ffffffffffffffffffffffffffffffffffffffff168152602001908152602001600020819055508a73ffffffffffffffffffffffffffffffffffffffff168c73ffffffffffffffffffffffffffffffffffffffff167f8c5be1e5ebec7d5bd14f71427d1e84f3dd0314c0f7b2291e5b200ac8c7c3b9258c6040518082815260200191505060405180910390a3505050505050505050505050565b60026020908152600092835260408084209091529082529020548156fe574554483a3a7472616e73666572416e6443616c6c3a207472616e7366657220616d6f756e7420657863656564732062616c616e6365574554483a3a776974686472617746726f6d3a20696e76616c696420726563697069656e74574554483a3a636f6e76657274546f3a20696e76616c696420726563697069656e74574554483a3a7472616e7366657246726f6d3a20696e76616c696420726563697069656e74574554483a3a7769746864726177546f3a204574686572207472616e73666572206661696c6564574554483a3a666c6173684d696e743a20737570706c79206c696d6974206578636565646564574554483a3a636f6e76657274546f3a20636f6e7665727420616d6f756e7420657863656564732062616c616e6365574554483a3a776974686472617746726f6d3a204574686572207472616e73666572206661696c6564574554483a3a7472616e736665723a20696e76616c696420726563697069656e74574554483a3a7472616e7366657246726f6d3a207472616e7366657220616d6f756e74206578636565647320616c6c6f77616e6365574554483a3a726563656976653a20737570706c79206c696d6974206578636565646564574554483a3a6465706f736974546f416e6443616c6c3a20696e76616c696420726563697069656e74574554483a3a77697468647261773a20776974686472617720616d6f756e7420657863656564732062616c616e6365574554483a3a6465706f736974546f3a20696e76616c696420726563697069656e74574554483a3a6465706f736974546f416e6443616c6c3a20737570706c79206c696d6974206578636565646564574554483a3a636f6e7665727446726f6d3a20636f6e7665727420616d6f756e7420657863656564732062616c616e6365574554483a3a776974686472617746726f6d3a20776974686472617720616d6f756e74206578636565647320616c6c6f77616e6365574554483a3a6465706f736974546f3a20737570706c79206c696d6974206578636565646564574554483a3a7472616e73666572416e6443616c6c3a20696e76616c696420726563697069656e74574554483a3a636f6e766572743a2057455448207472616e73666572206661696c6564574554483a3a636f6e7665727446726f6d3a20696e76616c696420726563697069656e74574554483a3a7769746864726177546f3a20776974686472617720616d6f756e7420657863656564732062616c616e6365574554483a3a6465706f7369743a20737570706c79206c696d6974206578636565646564574554483a3a666c6173684d696e743a207472616e7366657220616d6f756e7420657863656564732062616c616e6365574554483a3a636f6e7665727446726f6d3a20636f6e7665727420616d6f756e74206578636565647320616c6c6f77616e6365574554483a3a7472616e7366657246726f6d3a207472616e7366657220616d6f756e7420657863656564732062616c616e6365574554483a3a776974686472617746726f6d3a20776974686472617720616d6f756e7420657863656564732062616c616e6365574554483a3a7472616e736665723a207472616e7366657220616d6f756e7420657863656564732062616c616e6365574554483a3a77697468647261773a204574686572207472616e73666572206661696c6564574554483a3a636f6e766572743a20636f6e7665727420616d6f756e7420657863656564732062616c616e6365574554483a3a7769746864726177546f3a20696e76616c696420726563697069656e74a2646970667358221220f5e9068523c49fbd35ade40da7b221cd115f11d8f0e09477ff3c07b3f19dd5d264736f6c63430007000033"
}